:100000000C942A000C9434000C9434000C943400AA
:100010000C9434000C9434000C9434000C94340090
:100020000C9434000C9434000C9434000C94340080
:100030000C9434000C9434000C9434000C94340070
:100040000C9434000C9434000C9434000C94340060
:100050000C94340011241FBECFE5D8E0DEBFCDBF25
:100060000E9447000C9454000C9400008FEF8ABB50
:100070001BBA08952FEF89E698E121508040904007
:10008000E1F700C000008BB380958BBB0895CF9340
:10009000DF931F92CDB7DEB78FEF8ABB1BBACE01BD
:0C00A00001960E943A00FBCFF894FFCFBD
:00000001FF
